{
  "contractName": "Dhakon",
  "abi": [
    {
      "inputs": [
        {
          "internalType": "address",
          "name": "_linkAddress",
          "type": "address"
        },
        {
          "internalType": "address",
          "name": "_wrapperAddress",
          "type": "address"
        },
        {
          "internalType": "uint32",
          "name": "_callbackGasLimit",
          "type": "uint32"
        },
        {
          "internalType": "uint256",
          "name": "_ticketPrice",
          "type": "uint256"
        },
        {
          "internalType": "uint8",
          "name": "_roundDays",
          "type": "uint8"
        },
        {
          "internalType": "uint16",
          "name": "_commissionPct",
          "type": "uint16"
        }
      ],
      "stateMutability": "nonpayable",
      "type": "constructor"
    },
    {
      "anonymous": false,
      "inputs": [
        {
          "indexed": true,
          "internalType": "uint32",
          "name": "ticket",
          "type": "uint32"
        },
        {
          "indexed": true,
          "internalType": "address",
          "name": "player",
          "type": "address"
        }
      ],
      "name": "NewPlayerEntered",
      "type": "event"
    },
    {
      "anonymous": false,
      "inputs": [
        {
          "indexed": true,
          "internalType": "uint16",
          "name": "round",
          "type": "uint16"
        },
        {
          "indexed": false,
          "internalType": "uint8",
          "name": "nDays",
          "type": "uint8"
        },
        {
          "indexed": false,
          "internalType": "uint256",
          "name": "endsAt",
          "type": "uint256"
        }
      ],
      "name": "RoundStarted",
      "type": "event"
    },
    {
      "anonymous": false,
      "inputs": [
        {
          "indexed": true,
          "internalType": "uint32",
          "name": "ticket",
          "type": "uint32"
        },
        {
          "indexed": false,
          "internalType": "address",
          "name": "player",
          "type": "address"
        }
      ],
      "name": "WinnerChosen",
      "type": "event"
    },
    {
      "anonymous": false,
      "inputs": [
        {
          "indexed": true,
          "internalType": "uint32",
          "name": "ticket",
          "type": "uint32"
        },
        {
          "indexed": false,
          "internalType": "address",
          "name": "player",
          "type": "address"
        },
        {
          "indexed": false,
          "internalType": "uint256",
          "name": "paidAt",
          "type": "uint256"
        }
      ],
      "name": "WinnerPaid",
      "type": "event"
    },
    {
      "inputs": [],
      "name": "callbackGasLimit",
      "outputs": [
        {
          "internalType": "uint32",
          "name": "",
          "type": "uint32"
        }
      ],
      "stateMutability": "view",
      "type": "function",
      "constant": true
    },
    {
      "inputs": [],
      "name": "commissionPct",
      "outputs": [
        {
          "internalType": "uint16",
          "name": "",
          "type": "uint16"
        }
      ],
      "stateMutability": "view",
      "type": "function",
      "constant": true
    },
    {
      "inputs": [],
      "name": "currentRound",
      "outputs": [
        {
          "internalType": "uint16",
          "name": "",
          "type": "uint16"
        }
      ],
      "stateMutability": "view",
      "type": "function",
      "constant": true
    },
    {
      "inputs": [],
      "name": "isPaused",
      "outputs": [
        {
          "internalType": "bool",
          "name": "",
          "type": "bool"
        }
      ],
      "stateMutability": "view",
      "type": "function",
      "constant": true
    },
    {
      "inputs": [],
      "name": "isPayingWinner",
      "outputs": [
        {
          "internalType": "bool",
          "name": "",
          "type": "bool"
        }
      ],
      "stateMutability": "view",
      "type": "function",
      "constant": true
    },
    {
      "inputs": [],
      "name": "isPickingWinner",
      "outputs": [
        {
          "internalType": "bool",
          "name": "",
          "type": "bool"
        }
      ],
      "stateMutability": "view",
      "type": "function",
      "constant": true
    },
    {
      "inputs": [],
      "name": "lastRequestId",
      "outputs": [
        {
          "internalType": "uint256",
          "name": "",
          "type": "uint256"
        }
      ],
      "stateMutability": "view",
      "type": "function",
      "constant": true
    },
    {
      "inputs": [
        {
          "internalType": "uint32",
          "name": "",
          "type": "uint32"
        }
      ],
      "name": "playerTickets",
      "outputs": [
        {
          "internalType": "address",
          "name": "",
          "type": "address"
        }
      ],
      "stateMutability": "view",
      "type": "function",
      "constant": true
    },
    {
      "inputs": [
        {
          "internalType": "uint256",
          "name": "",
          "type": "uint256"
        }
      ],
      "name": "players",
      "outputs": [
        {
          "internalType": "address",
          "name": "",
          "type": "address"
        }
      ],
      "stateMutability": "view",
      "type": "function",
      "constant": true
    },
    {
      "inputs": [
        {
          "internalType": "uint256",
          "name": "_requestId",
          "type": "uint256"
        },
        {
          "internalType": "uint256[]",
          "name": "_randomWords",
          "type": "uint256[]"
        }
      ],
      "name": "rawFulfillRandomWords",
      "outputs": [],
      "stateMutability": "nonpayable",
      "type": "function"
    },
    {
      "inputs": [],
      "name": "roundDays",
      "outputs": [
        {
          "internalType": "uint8",
          "name": "",
          "type": "uint8"
        }
      ],
      "stateMutability": "view",
      "type": "function",
      "constant": true
    },
    {
      "inputs": [],
      "name": "roundEndsAt",
      "outputs": [
        {
          "internalType": "uint256",
          "name": "",
          "type": "uint256"
        }
      ],
      "stateMutability": "view",
      "type": "function",
      "constant": true
    },
    {
      "inputs": [],
      "name": "ticketPrice",
      "outputs": [
        {
          "internalType": "uint256",
          "name": "",
          "type": "uint256"
        }
      ],
      "stateMutability": "view",
      "type": "function",
      "constant": true
    },
    {
      "inputs": [
        {
          "internalType": "uint256",
          "name": "",
          "type": "uint256"
        }
      ],
      "name": "tickets",
      "outputs": [
        {
          "internalType": "uint32",
          "name": "num",
          "type": "uint32"
        },
        {
          "internalType": "uint256",
          "name": "time",
          "type": "uint256"
        },
        {
          "internalType": "address",
          "name": "player",
          "type": "address"
        }
      ],
      "stateMutability": "view",
      "type": "function",
      "constant": true
    },
    {
      "inputs": [
        {
          "internalType": "uint256",
          "name": "",
          "type": "uint256"
        }
      ],
      "name": "winners",
      "outputs": [
        {
          "internalType": "uint16",
          "name": "round",
          "type": "uint16"
        },
        {
          "internalType": "uint32",
          "name": "ticket",
          "type": "uint32"
        },
        {
          "internalType": "address",
          "name": "player",
          "type": "address"
        },
        {
          "internalType": "uint256",
          "name": "randRequestId",
          "type": "uint256"
        },
        {
          "internalType": "uint256",
          "name": "wonAt",
          "type": "uint256"
        },
        {
          "internalType": "uint256",
          "name": "paidAt",
          "type": "uint256"
        }
      ],
      "stateMutability": "view",
      "type": "function",
      "constant": true
    },
    {
      "inputs": [
        {
          "internalType": "bytes",
          "name": "checkData",
          "type": "bytes"
        }
      ],
      "name": "checkUpkeep",
      "outputs": [
        {
          "internalType": "bool",
          "name": "upkeepNeeded",
          "type": "bool"
        },
        {
          "internalType": "bytes",
          "name": "performData",
          "type": "bytes"
        }
      ],
      "stateMutability": "view",
      "type": "function",
      "constant": true
    },
    {
      "inputs": [
        {
          "internalType": "bytes",
          "name": "performData",
          "type": "bytes"
        }
      ],
      "name": "performUpkeep",
      "outputs": [],
      "stateMutability": "nonpayable",
      "type": "function"
    },
    {
      "inputs": [
        {
          "internalType": "uint32",
          "name": "limit",
          "type": "uint32"
        }
      ],
      "name": "getWinners",
      "outputs": [
        {
          "components": [
            {
              "internalType": "uint16",
              "name": "round",
              "type": "uint16"
            },
            {
              "internalType": "uint32",
              "name": "ticket",
              "type": "uint32"
            },
            {
              "internalType": "address",
              "name": "player",
              "type": "address"
            },
            {
              "internalType": "uint256",
              "name": "randRequestId",
              "type": "uint256"
            },
            {
              "internalType": "uint256",
              "name": "wonAt",
              "type": "uint256"
            },
            {
              "internalType": "uint256",
              "name": "paidAt",
              "type": "uint256"
            }
          ],
          "internalType": "struct Dhakon.Winner[]",
          "name": "",
          "type": "tuple[]"
        }
      ],
      "stateMutability": "view",
      "type": "function",
      "constant": true
    },
    {
      "inputs": [],
      "name": "getNumOfWinners",
      "outputs": [
        {
          "internalType": "uint256",
          "name": "",
          "type": "uint256"
        }
      ],
      "stateMutability": "view",
      "type": "function",
      "constant": true
    },
    {
      "inputs": [
        {
          "internalType": "uint16",
          "name": "_round",
          "type": "uint16"
        }
      ],
      "name": "getWinnerByRound",
      "outputs": [
        {
          "components": [
            {
              "internalType": "uint16",
              "name": "round",
              "type": "uint16"
            },
            {
              "internalType": "uint32",
              "name": "ticket",
              "type": "uint32"
            },
            {
              "internalType": "address",
              "name": "player",
              "type": "address"
            },
            {
              "internalType": "uint256",
              "name": "randRequestId",
              "type": "uint256"
            },
            {
              "internalType": "uint256",
              "name": "wonAt",
              "type": "uint256"
            },
            {
              "internalType": "uint256",
              "name": "paidAt",
              "type": "uint256"
            }
          ],
          "internalType": "struct Dhakon.Winner",
          "name": "",
          "type": "tuple"
        }
      ],
      "stateMutability": "view",
      "type": "function",
      "constant": true
    },
    {
      "inputs": [],
      "name": "getBalance",
      "outputs": [
        {
          "internalType": "uint256",
          "name": "",
          "type": "uint256"
        }
      ],
      "stateMutability": "view",
      "type": "function",
      "constant": true
    },
    {
      "inputs": [
        {
          "internalType": "uint8",
          "name": "limit",
          "type": "uint8"
        }
      ],
      "name": "getPlayers",
      "outputs": [
        {
          "internalType": "address[]",
          "name": "",
          "type": "address[]"
        }
      ],
      "stateMutability": "view",
      "type": "function",
      "constant": true
    },
    {
      "inputs": [],
      "name": "getNumOfPlayers",
      "outputs": [
        {
          "internalType": "uint256",
          "name": "",
          "type": "uint256"
        }
      ],
      "stateMutability": "view",
      "type": "function",
      "constant": true
    },
    {
      "inputs": [
        {
          "internalType": "uint8",
          "name": "limit",
          "type": "uint8"
        }
      ],
      "name": "getTickets",
      "outputs": [
        {
          "components": [
            {
              "internalType": "uint32",
              "name": "num",
              "type": "uint32"
            },
            {
              "internalType": "uint256",
              "name": "time",
              "type": "uint256"
            },
            {
              "internalType": "address",
              "name": "player",
              "type": "address"
            }
          ],
          "internalType": "struct Dhakon.Ticket[]",
          "name": "",
          "type": "tuple[]"
        }
      ],
      "stateMutability": "view",
      "type": "function",
      "constant": true
    },
    {
      "inputs": [],
      "name": "getNumOfTickets",
      "outputs": [
        {
          "internalType": "uint256",
          "name": "",
          "type": "uint256"
        }
      ],
      "stateMutability": "view",
      "type": "function",
      "constant": true
    },
    {
      "inputs": [],
      "name": "enter",
      "outputs": [],
      "stateMutability": "payable",
      "type": "function",
      "payable": true
    },
    {
      "inputs": [],
      "name": "pickWinner",
      "outputs": [],
      "stateMutability": "nonpayable",
      "type": "function"
    },
    {
      "inputs": [],
      "name": "payWinner",
      "outputs": [],
      "stateMutability": "nonpayable",
      "type": "function"
    },
    {
      "inputs": [],
      "name": "withdrawLINKToken",
      "outputs": [],
      "stateMutability": "nonpayable",
      "type": "function"
    },
    {
      "inputs": [
        {
          "internalType": "uint8",
          "name": "_roundDays",
          "type": "uint8"
        }
      ],
      "name": "setRoundDays",
      "outputs": [],
      "stateMutability": "nonpayable",
      "type": "function"
    },
    {
      "inputs": [
        {
          "internalType": "uint256",
          "name": "_timestamp",
          "type": "uint256"
        }
      ],
      "name": "setRoundEndsAt",
      "outputs": [],
      "stateMutability": "nonpayable",
      "type": "function"
    },
    {
      "inputs": [
        {
          "internalType": "bool",
          "name": "_val",
          "type": "bool"
        }
      ],
      "name": "setIsPickingWinner",
      "outputs": [],
      "stateMutability": "nonpayable",
      "type": "function"
    },
    {
      "inputs": [
        {
          "internalType": "bool",
          "name": "_val",
          "type": "bool"
        }
      ],
      "name": "setIsPayingWinner",
      "outputs": [],
      "stateMutability": "nonpayable",
      "type": "function"
    },
    {
      "inputs": [
        {
          "internalType": "bool",
          "name": "_val",
          "type": "bool"
        }
      ],
      "name": "setIsPaused",
      "outputs": [],
      "stateMutability": "nonpayable",
      "type": "function"
    },
    {
      "inputs": [
        {
          "internalType": "uint32",
          "name": "_val",
          "type": "uint32"
        }
      ],
      "name": "setCallbackGasLimit",
      "outputs": [],
      "stateMutability": "nonpayable",
      "type": "function"
    },
    {
      "inputs": [
        {
          "internalType": "address",
          "name": "_address",
          "type": "address"
        }
      ],
      "name": "isOwner",
      "outputs": [
        {
          "internalType": "bool",
          "name": "",
          "type": "bool"
        }
      ],
      "stateMutability": "view",
      "type": "function",
      "constant": true
    }
  ],
  "bytecode": "0x6101006040526000600660036101000a81548161ffff021916908361ffff1602179055503480156200003057600080fd5b506040516200470e3803806200470e8339818101604052810190620000569190620002c5565b85858173ffffffffffffffffffffffffffffffffffffffff1660808173ffffffffffffffffffffffffffffffffffffffff16815250508073ffffffffffffffffffffffffffffffffffffffff1660a08173ffffffffffffffffffffffffffffffffffffffff1681525050505083600860006101000a81548163ffffffff021916908363ffffffff160217905550336000806101000a81548173ffffffffffffffffffffffffffffffffffffffff021916908373ffffffffffffffffffffffffffffffffffffffff1602179055508260c0818152505081600060146101000a81548160ff021916908360ff1602179055508061ffff1660e08161ffff168152505050505050505062000361565b600080fd5b600073ffffffffffffffffffffffffffffffffffffffff82169050919050565b6000620001948262000167565b9050919050565b620001a68162000187565b8114620001b257600080fd5b50565b600081519050620001c6816200019b565b92915050565b600063ffffffff82169050919050565b620001e781620001cc565b8114620001f357600080fd5b50565b6000815190506200020781620001dc565b92915050565b6000819050919050565b62000222816200020d565b81146200022e57600080fd5b50565b600081519050620002428162000217565b92915050565b600060ff82169050919050565b620002608162000248565b81146200026c57600080fd5b50565b600081519050620002808162000255565b92915050565b600061ffff82169050919050565b6200029f8162000286565b8114620002ab57600080fd5b50565b600081519050620002bf8162000294565b92915050565b60008060008060008060c08789031215620002e557620002e462000162565b5b6000620002f589828a01620001b5565b96505060206200030889828a01620001b5565b95505060406200031b89828a01620001f6565b94505060606200032e89828a0162000231565b93505060806200034189828a016200026f565b92505060a06200035489828a01620002ae565b9150509295509295509295565b60805160a05160c05160e051614342620003cc600039600081816116020152611b270152600081816109500152611ec2015260008181610974015281816128760152818161289701526129b7015260008181610dff01528181610ede015261283a01526143426000f3fe60806040526004361061020f5760003560e01c8063869fe08d11610118578063be71248a116100a0578063e97dcb621161006f578063e97dcb6214610795578063f71d96cb1461079f578063f7d67d9f146107dc578063fc2a88c314610819578063ff53446a146108445761020f565b8063be71248a146106ed578063c688d10a14610704578063d5b2d9541461072f578063daf5d8e1146107585761020f565b8063a4eb718c116100e7578063a4eb718c14610606578063b187bd261461062f578063b18a02a41461065a578063bc6e6a9014610697578063be320954146106c25761020f565b8063869fe08d1461054357806386cce5051461056e5780638a19c8bc14610599578063a2fb1175146105c45761020f565b80632f903e031161019b57806350b447121161016a57806350b4471214610459578063565429de146104985780635d495aea146104c35780636e04ff0d146104da5780637a5331f1146105185761020f565b80632f903e03146103b35780633df11d31146103dc57806340a1b96e146103f35780634585e33b146104305761020f565b80631fe543e3116101e25780631fe543e3146102bc578063240976bf146102e557806324f746971461030e578063265c8483146103395780632f54bf6e146103765761020f565b806309c2a118146102145780630e12689c1461023d57806312065fe0146102665780631209b1f614610291575b600080fd5b34801561022057600080fd5b5061023b60048036038101906102369190612beb565b61086f565b005b34801561024957600080fd5b50610264600480360381019061025f9190612c4e565b6108e4565b005b34801561027257600080fd5b5061027b610946565b6040516102889190612c8a565b60405180910390f35b34801561029d57600080fd5b506102a661094e565b6040516102b39190612c8a565b60405180910390f35b3480156102c857600080fd5b506102e360048036038101906102de9190612dfe565b610972565b005b3480156102f157600080fd5b5061030c60048036038101906103079190612beb565b610a0e565b005b34801561031a57600080fd5b50610323610a83565b6040516103309190612e79565b60405180910390f35b34801561034557600080fd5b50610360600480360381019061035b9190612ec0565b610a99565b60405161036d9190613093565b60405180910390f35b34801561038257600080fd5b5061039d600480360381019061039891906130e1565b610cd4565b6040516103aa919061311d565b60405180910390f35b3480156103bf57600080fd5b506103da60048036038101906103d59190613171565b610d2d565b005b3480156103e857600080fd5b506103f1610da3565b005b3480156103ff57600080fd5b5061041a60048036038101906104159190613171565b610f9e565b604051610427919061328f565b60405180910390f35b34801561043c57600080fd5b506104576004803603810190610452919061330c565b61119c565b005b34801561046557600080fd5b50610480600480360381019061047b9190612c4e565b6112ae565b60405161048f93929190613368565b60405180910390f35b3480156104a457600080fd5b506104ad611318565b6040516104ba9190612c8a565b60405180910390f35b3480156104cf57600080fd5b506104d8611325565b005b3480156104e657600080fd5b5061050160048036038101906104fc919061330c565b611468565b60405161050f929190613427565b60405180910390f35b34801561052457600080fd5b5061052d6115e0565b60405161053a9190613466565b60405180910390f35b34801561054f57600080fd5b506105586115f3565b6040516105659190612c8a565b60405180910390f35b34801561057a57600080fd5b50610583611600565b6040516105909190613490565b60405180910390f35b3480156105a557600080fd5b506105ae611624565b6040516105bb9190613490565b60405180910390f35b3480156105d057600080fd5b506105eb60048036038101906105e69190612c4e565b611638565b6040516105fd969594939291906134ab565b60405180910390f35b34801561061257600080fd5b5061062d60048036038101906106289190612ec0565b6116c2565b005b34801561063b57600080fd5b5061064461173e565b604051610651919061311d565b60405180910390f35b34801561066657600080fd5b50610681600480360381019061067c9190613171565b611751565b60405161068e91906135bb565b60405180910390f35b3480156106a357600080fd5b506106ac6118fe565b6040516106b99190612c8a565b60405180910390f35b3480156106ce57600080fd5b506106d761190b565b6040516106e49190612c8a565b60405180910390f35b3480156106f957600080fd5b50610702611911565b005b34801561071057600080fd5b50610719611c6a565b604051610726919061311d565b60405180910390f35b34801561073b57600080fd5b5061075660048036038101906107519190612beb565b611c7d565b005b34801561076457600080fd5b5061077f600480360381019061077a9190613609565b611cf2565b60405161078c91906136b1565b60405180910390f35b61079d611e70565b005b3480156107ab57600080fd5b506107c660048036038101906107c19190612c4e565b61214c565b6040516107d391906136cc565b60405180910390f35b3480156107e857600080fd5b5061080360048036038101906107fe9190612ec0565b61218b565b60405161081091906136cc565b60405180910390f35b34801561082557600080fd5b5061082e6121be565b60405161083b9190612c8a565b60405180910390f35b34801561085057600080fd5b506108596121c4565b604051610866919061311d565b60405180910390f35b60008054906101000a900473ffffffffffffffffffffffffffffffffffffffff1673ffffffffffffffffffffffffffffffffffffffff163373ffffffffffffffffffffffffffffffffffffffff16146108c757600080fd5b80600660016101000a81548160ff02191690831515021790555050565b60008054906101000a900473ffffffffffffffffffffffffffffffffffffffff1673ffffffffffffffffffffffffffffffffffffffff163373ffffffffffffffffffffffffffffffffffffffff161461093c57600080fd5b8060078190555050565b600047905090565b7f000000000000000000000000000000000000000000000000000000000000000081565b7f000000000000000000000000000000000000000000000000000000000000000073ffffffffffffffffffffffffffffffffffffffff163373ffffffffffffffffffffffffffffffffffffffff1614610a00576040517f08c379a00000000000000000000000000000000000000000000000000000000081526004016109f790613744565b60405180910390fd5b610a0a82826121d7565b5050565b60008054906101000a900473ffffffffffffffffffffffffffffffffffffffff1673ffffffffffffffffffffffffffffffffffffffff163373ffffffffffffffffffffffffffffffffffffffff1614610a6657600080fd5b80600660026101000a81548160ff02191690831515021790555050565b600860009054906101000a900463ffffffff1681565b606060008263ffffffff1611610ae4576040517f08c379a0000000000000000000000000000000000000000000000000000000008152600401610adb906137b0565b60405180910390fd5b60008263ffffffff1667ffffffffffffffff811115610b0657610b05612cbb565b5b604051908082528060200260200182016040528015610b3f57816020015b610b2c612a4d565b815260200190600190039081610b245790505b509050600060058054905003610b585780915050610ccf565b600060019050600060058054905090505b8463ffffffff168260ff1611158015610b825750600081115b15610cc8576005600182610b9691906137ff565b81548110610ba757610ba6613833565b5b90600052602060002090600402016040518060c00160405290816000820160009054906101000a900461ffff1661ffff1661ffff1681526020016000820160029054906101000a900463ffffffff1663ffffffff1663ffffffff1681526020016000820160069054906101000a900473ffffffffffffffffffffffffffffffffffffffff1673ffffffffffffffffffffffffffffffffffffffff1673ffffffffffffffffffffffffffffffffffffffff168152602001600182015481526020016002820154815260200160038201548152505083600184610c889190613862565b60ff1681518110610c9c57610c9b613833565b5b60200260200101819052508180610cb290613896565b9250508080610cc0906138bf565b915050610b69565b8293505050505b919050565b60008060009054906101000a900473ffffffffffffffffffffffffffffffffffffffff1673ffffffffffffffffffffffffffffffffffffffff168273ffffffffffffffffffffffffffffffffffffffff16149050919050565b60008054906101000a900473ffffffffffffffffffffffffffffffffffffffff1673ffffffffffffffffffffffffffffffffffffffff163373ffffffffffffffffffffffffffffffffffffffff1614610d8557600080fd5b80600060146101000a81548160ff021916908360ff16021790555050565b60008054906101000a900473ffffffffffffffffffffffffffffffffffffffff1673ffffffffffffffffffffffffffffffffffffffff163373ffffffffffffffffffffffffffffffffffffffff1614610dfb57600080fd5b60007f000000000000000000000000000000000000000000000000000000000000000073ffffffffffffffffffffffffffffffffffffffff166370a08231306040518263ffffffff1660e01b8152600401610e5691906136cc565b602060405180830381865afa158015610e73573d6000803e3d6000fd5b505050506040513d601f19601f82011682018060405250810190610e9791906138fd565b905060008111610edc576040517f08c379a0000000000000000000000000000000000000000000000000000000008152600401610ed390613976565b60405180910390fd5b7f000000000000000000000000000000000000000000000000000000000000000073ffffffffffffffffffffffffffffffffffffffff1663a9059cbb60008054906101000a900473ffffffffffffffffffffffffffffffffffffffff16836040518363ffffffff1660e01b8152600401610f57929190613996565b6020604051808303816000875af1158015610f76573d6000803e3d6000fd5b505050506040513d601f19601f82011682018060405250810190610f9a91906139d4565b5050565b606060008260ff1611610fe6576040517f08c379a0000000000000000000000000000000000000000000000000000000008152600401610fdd906137b0565b60405180910390fd5b60008260ff1667ffffffffffffffff81111561100557611004612cbb565b5b60405190808252806020026020018201604052801561103e57816020015b61102b612aa3565b8152602001906001900390816110235790505b5090506000600380549050036110575780915050611197565b600060019050600060038054905090505b8460ff168260ff161115801561107e5750600081115b1561119057600360018261109291906137ff565b815481106110a3576110a2613833565b5b90600052602060002090600302016040518060600160405290816000820160009054906101000a900463ffffffff1663ffffffff1663ffffffff168152602001600182015481526020016002820160009054906101000a900473ffffffffffffffffffffffffffffffffffffffff1673ffffffffffffffffffffffffffffffffffffffff1673ffffffffffffffffffffffffffffffffffffffff1681525050836001846111509190613862565b60ff168151811061116457611163613833565b5b6020026020010181905250818061117a90613896565b9250508080611188906138bf565b915050611068565b8293505050505b919050565b7f5fe7f977e71dba2ea1a68e21057beebb9be2ac30c6410aa38d4f3fbe41dcffd282826040516111cd929190613a40565b60405180910390200361123957600660039054906101000a900461ffff1661ffff166005805490501115801561120557504260075411155b61121257611211613a59565b5b600660009054906101000a900460ff161561122c57600080fd5b611234611325565b6112aa565b7ff2ee15ea639b73fa3db9b34a245bdfa015c260c598b211bf05a1ecc4b3e3b4f2828260405161126a929190613a40565b6040518091039020036112a957600660039054906101000a900461ffff1661ffff16600580549050116112a05761129f613a59565b5b6112a8611911565b5b5b5050565b600381815481106112be57600080fd5b90600052602060002090600302016000915090508060000160009054906101000a900463ffffffff16908060010154908060020160009054906101000a900473ffffffffffffffffffffffffffffffffffffffff16905083565b6000600180549050905090565b600660009054906101000a900460ff161561133f57600080fd5b426007541115611384576040517f08c379a000000000000000000000000000000000000000000000000000000000815260040161137b90613ad4565b60405180910390fd5b6000600380549050116113cc576040517f08c379a00000000000000000000000000000000000000000000000000000000081526004016113c390613b40565b60405180910390fd5b600660039054906101000a900461ffff1661ffff166005805490501115611428576040517f08c379a000000000000000000000000000000000000000000000000000000000815260040161141f90613bac565b60405180910390fd5b6001600660006101000a81548160ff0219169083151502179055506001600660026101000a81548160ff0219169083151502179055506114666124d5565b565b600060607f5fe7f977e71dba2ea1a68e21057beebb9be2ac30c6410aa38d4f3fbe41dcffd2848460405161149d929190613a40565b6040518091039020036115345760006003805490501180156114d85750600660039054906101000a900461ffff1661ffff1660058054905011155b80156114e657504260075411155b915083838080601f016020809104026020016040519081016040528093929190818152602001838380828437600081840152601f19601f8201169050808301925050505050505090506115d9565b7ff2ee15ea639b73fa3db9b34a245bdfa015c260c598b211bf05a1ecc4b3e3b4f28484604051611565929190613a40565b6040518091039020036115d857600660039054906101000a900461ffff1661ffff1660058054905011915083838080601f016020809104026020016040519081016040528093929190818152602001838380828437600081840152601f19601f8201169050808301925050505050505090505b5b9250929050565b600060149054906101000a900460ff1681565b6000600580549050905090565b7f000000000000000000000000000000000000000000000000000000000000000081565b600660039054906101000a900461ffff1681565b6005818154811061164857600080fd5b90600052602060002090600402016000915090508060000160009054906101000a900461ffff16908060000160029054906101000a900463ffffffff16908060000160069054906101000a900473ffffffffffffffffffffffffffffffffffffffff16908060010154908060020154908060030154905086565b60008054906101000a900473ffffffffffffffffffffffffffffffffffffffff1673ffffffffffffffffffffffffffffffffffffffff163373ffffffffffffffffffffffffffffffffffffffff161461171a57600080fd5b80600860006101000a81548163ffffffff021916908363ffffffff16021790555050565b600660029054906101000a900460ff1681565b606060008260ff1611611799576040517f08c379a0000000000000000000000000000000000000000000000000000000008152600401611790906137b0565b60405180910390fd5b60008260ff1667ffffffffffffffff8111156117b8576117b7612cbb565b5b6040519080825280602002602001820160405280156117e65781602001602082028036833780820191505090505b5090506000600180549050036117ff57809150506118f9565b600060019050600060018054905090505b8460ff168260ff16111580156118265750600081115b156118f2576001808261183991906137ff565b8154811061184a57611849613833565b5b9060005260206000200160009054906101000a900473ffffffffffffffffffffffffffffffffffffffff16836001846118839190613862565b60ff168151811061189757611896613833565b5b602002602001019073ffffffffffffffffffffffffffffffffffffffff16908173ffffffffffffffffffffffffffffffffffffffff168152505081806118dc90613896565b92505080806118ea906138bf565b915050611810565b8293505050505b919050565b6000600380549050905090565b60075481565b600660019054906101000a900460ff161561192b57600080fd5b600660039054906101000a900461ffff1661ffff1660058054905011611986576040517f08c379a000000000000000000000000000000000000000000000000000000000815260040161197d90613c3e565b60405180910390fd5b6001600660016101000a81548160ff0219169083151502179055506000479050600081116119e9576040517f08c379a00000000000000000000000000000000000000000000000000000000081526004016119e090613caa565b60405180910390fd5b60006005600660039054906101000a900461ffff1661ffff1681548110611a1357611a12613833565b5b906000526020600020906004020160000160029054906101000a900463ffffffff1690506000600460008363ffffffff1663ffffffff16815260200190815260200160002060009054906101000a900473ffffffffffffffffffffffffffffffffffffffff16905060008060009054906101000a900473ffffffffffffffffffffffffffffffffffffffff1690506000429050806005600660039054906101000a900461ffff1661ffff1681548110611acf57611ace613833565b5b9060005260206000209060040201600301819055506006600381819054906101000a900461ffff1680929190611b0490613cca565b91906101000a81548161ffff021916908361ffff160217905550506000612710867f000000000000000000000000000000000000000000000000000000000000000061ffff16611b549190613cf4565b611b5e9190613d7d565b905060008187611b6e91906137ff565b90508473ffffffffffffffffffffffffffffffffffffffff166108fc829081150290604051600060405180830381858888f19350505050158015611bb6573d6000803e3d6000fd5b508373ffffffffffffffffffffffffffffffffffffffff166108fc839081150290604051600060405180830381858888f19350505050158015611bfd573d6000803e3d6000fd5b506000600660016101000a81548160ff0219169083151502179055508563ffffffff167f0664ed92455dd44f7a47ec3ce1d1c5273869803595a4ae31ddfcca5a53a8ddf38685604051611c51929190613e0d565b60405180910390a2611c61612502565b50505050505050565b600660009054906101000a900460ff1681565b60008054906101000a900473ffffffffffffffffffffffffffffffffffffffff1673ffffffffffffffffffffffffffffffffffffffff163373ffffffffffffffffffffffffffffffffffffffff1614611cd557600080fd5b80600660006101000a81548160ff02191690831515021790555050565b611cfa612a4d565b60008261ffff1603611d26576001600660039054906101000a900461ffff16611d239190613e36565b91505b6005805490508261ffff161115611d72576040517f08c379a0000000000000000000000000000000000000000000000000000000008152600401611d6990613eba565b60405180910390fd5b6005600183611d819190613eda565b61ffff1681548110611d9657611d95613833565b5b90600052602060002090600402016040518060c00160405290816000820160009054906101000a900461ffff1661ffff1661ffff1681526020016000820160029054906101000a900463ffffffff1663ffffffff1663ffffffff1681526020016000820160069054906101000a900473ffffffffffffffffffffffffffffffffffffffff1673ffffffffffffffffffffffffffffffffffffffff1673ffffffffffffffffffffffffffffffffffffffff16815260200160018201548152602001600282015481526020016003820154815250509050919050565b600660029054906101000a900460ff1615611ec0576040517f08c379a0000000000000000000000000000000000000000000000000000000008152600401611eb790613f5a565b60405180910390fd5b7f0000000000000000000000000000000000000000000000000000000000000000341015611f23576040517f08c379a0000000000000000000000000000000000000000000000000000000008152600401611f1a90613fc6565b60405180910390fd5b60003390506000611f3382612687565b9050600381908060018154018082558091505060019003906000526020600020906003020160009091909190915060008201518160000160006101000a81548163ffffffff021916908363ffffffff1602179055506020820151816001015560408201518160020160006101000a81548173ffffffffffffffffffffffffffffffffffffffff021916908373ffffffffffffffffffffffffffffffffffffffff16021790555050508160046000836000015163ffffffff1663ffffffff16815260200190815260200160002060006101000a81548173ffffffffffffffffffffffffffffffffffffffff021916908373ffffffffffffffffffffffffffffffffffffffff1602179055506120468261271f565b806040015173ffffffffffffffffffffffffffffffffffffffff16816000015163ffffffff167ff2491f207d3b14775f0a23f6d718076a5c4276564223e3bdf53c17509677c63b60405160405180910390a36001600380549050036121485762015180600060149054906101000a900460ff1660ff166120c69190613ff5565b62ffffff16426120d69190614032565b6007819055506001600660039054906101000a900461ffff166120f99190613e36565b61ffff167f36225004256a52793dac0657eb20986d62cf4668b7898e3cdada9e4a83a36d33600060149054906101000a900460ff1660075460405161213f929190614088565b60405180910390a25b5050565b6001818154811061215c57600080fd5b906000526020600020016000915054906101000a900473ffffffffffffffffffffffffffffffffffffffff1681565b60046020528060005260406000206000915054906101000a900473ffffffffffffffffffffffffffffffffffffffff1681565b60095481565b600660019054906101000a900460ff1681565b600954821461221b576040517f08c379a0000000000000000000000000000000000000000000000000000000008152600401612212906140fd565b60405180910390fd5b60008160008151811061223157612230613833565b5b602002602001015103612279576040517f08c379a000000000000000000000000000000000000000000000000000000000815260040161227090614169565b60405180910390fd5b60006003805490508260008151811061229557612294613833565b5b60200260200101516122a79190614189565b90506000600382815481106122bf576122be613833565b5b906000526020600020906003020160000160009054906101000a900463ffffffff16905060006040518060c001604052806001600660039054906101000a900461ffff1661230d9190613e36565b61ffff1681526020018363ffffffff168152602001600460008563ffffffff1663ffffffff16815260200190815260200160002060009054906101000a900473ffffffffffffffffffffffffffffffffffffffff1673ffffffffffffffffffffffffffffffffffffffff16815260200186815260200142815260200160008152509050600581908060018154018082558091505060019003906000526020600020906004020160009091909190915060008201518160000160006101000a81548161ffff021916908361ffff16021790555060208201518160000160026101000a81548163ffffffff021916908363ffffffff16021790555060408201518160000160066101000a81548173ffffffffffffffffffffffffffffffffffffffff021916908373ffffffffffffffffffffffffffffffffffffffff160217905550606082015181600101556080820151816002015560a082015181600301555050806020015163ffffffff167f24e0c37efef70302949c552e01168c2bb9522236b80cca44c6fcb9a729ad818482604001516040516124ab91906136cc565b60405180910390a26000600660006101000a81548160ff0219169083151502179055505050505050565b60006124f6600860009054906101000a900463ffffffff1660036001612836565b90508060098190555050565b60005b6001805490508110156125b257600260006001838154811061252a57612529613833565b5b9060005260206000200160009054906101000a900473ffffffffffffffffffffffffffffffffffffffff1673ffffffffffffffffffffffffffffffffffffffff1673ffffffffffffffffffffffffffffffffffffffff16815260200190815260200160002060006101000a81549060ff021916905580806125aa906141ba565b915050612505565b50600160006125c19190612ae0565b60005b60038054905081101561265b5760046000600383815481106125e9576125e8613833565b5b906000526020600020906003020160000160009054906101000a900463ffffffff1663ffffffff1663ffffffff16815260200190815260200160002060006101000a81549073ffffffffffffffffffffffffffffffffffffffff02191690558080612653906141ba565b9150506125c4565b506003600061266a9190612b01565b6000600660026101000a81548160ff021916908315150217905550565b61268f612aa3565b60008060009054906101000a900473ffffffffffffffffffffffffffffffffffffffff16426040516020016126c592919061426b565b6040516020818303038152906040528051906020012060001c905060405180606001604052808263ffffffff1681526020014281526020018473ffffffffffffffffffffffffffffffffffffffff16815250915050919050565b60011515600260008373ffffffffffffffffffffffffffffffffffffffff1673ffffffffffffffffffffffffffffffffffffffff16815260200190815260200160002060009054906101000a900460ff16151514612833576001600260008373ffffffffffffffffffffffffffffffffffffffff1673ffffffffffffffffffffffffffffffffffffffff16815260200190815260200160002060006101000a81548160ff0219169083151502179055506001819080600181540180825580915050600190039060005260206000200160009091909190916101000a81548173ffffffffffffffffffffffffffffffffffffffff021916908373ffffffffffffffffffffffffffffffffffffffff1602179055505b50565b60007f000000000000000000000000000000000000000000000000000000000000000073ffffffffffffffffffffffffffffffffffffffff16634000aea07f00000000000000000000000000000000000000000000000000000000000000007f000000000000000000000000000000000000000000000000000000000000000073ffffffffffffffffffffffffffffffffffffffff16634306d354886040518263ffffffff1660e01b81526004016128ee9190612e79565b602060405180830381865afa15801561290b573d6000803e3d6000fd5b505050506040513d601f19601f8201168201806040525081019061292f91906138fd565b87878760405160200161294493929190614297565b6040516020818303038152906040526040518463ffffffff1660e01b8152600401612971939291906142ce565b6020604051808303816000875af1158015612990573d6000803e3d6000fd5b505050506040513d601f19601f820116820180604052508101906129b491906139d4565b507f000000000000000000000000000000000000000000000000000000000000000073ffffffffffffffffffffffffffffffffffffffff1663fc2a88c36040518163ffffffff1660e01b8152600401602060405180830381865afa158015612a20573d6000803e3d6000fd5b505050506040513d601f19601f82011682018060405250810190612a4491906138fd565b90509392505050565b6040518060c00160405280600061ffff168152602001600063ffffffff168152602001600073ffffffffffffffffffffffffffffffffffffffff1681526020016000815260200160008152602001600081525090565b6040518060600160405280600063ffffffff16815260200160008152602001600073ffffffffffffffffffffffffffffffffffffffff1681525090565b5080546000825590600052602060002090810190612afe9190612b25565b50565b5080546000825560030290600052602060002090810190612b229190612b42565b50565b5b80821115612b3e576000816000905550600101612b26565b5090565b5b80821115612b9b57600080820160006101000a81549063ffffffff021916905560018201600090556002820160006101000a81549073ffffffffffffffffffffffffffffffffffffffff021916905550600301612b43565b5090565b6000604051905090565b600080fd5b600080fd5b60008115159050919050565b612bc881612bb3565b8114612bd357600080fd5b50565b600081359050612be581612bbf565b92915050565b600060208284031215612c0157612c00612ba9565b5b6000612c0f84828501612bd6565b91505092915050565b6000819050919050565b612c2b81612c18565b8114612c3657600080fd5b50565b600081359050612c4881612c22565b92915050565b600060208284031215612c6457612c63612ba9565b5b6000612c7284828501612c39565b91505092915050565b612c8481612c18565b82525050565b6000602082019050612c9f6000830184612c7b565b92915050565b600080fd5b6000601f19601f8301169050919050565b7f4e487b7100000000000000000000000000000000000000000000000000000000600052604160045260246000fd5b612cf382612caa565b810181811067ffffffffffffffff82111715612d1257612d11612cbb565b5b80604052505050565b6000612d25612b9f565b9050612d318282612cea565b919050565b600067ffffffffffffffff821115612d5157612d50612cbb565b5b602082029050602081019050919050565b600080fd5b6000612d7a612d7584612d36565b612d1b565b90508083825260208201905060208402830185811115612d9d57612d9c612d62565b5b835b81811015612dc65780612db28882612c39565b845260208401935050602081019050612d9f565b5050509392505050565b600082601f830112612de557612de4612ca5565b5b8135612df5848260208601612d67565b91505092915050565b60008060408385031215612e1557612e14612ba9565b5b6000612e2385828601612c39565b925050602083013567ffffffffffffffff811115612e4457612e43612bae565b5b612e5085828601612dd0565b9150509250929050565b600063ffffffff82169050919050565b612e7381612e5a565b82525050565b6000602082019050612e8e6000830184612e6a565b92915050565b612e9d81612e5a565b8114612ea857600080fd5b50565b600081359050612eba81612e94565b92915050565b600060208284031215612ed657612ed5612ba9565b5b6000612ee484828501612eab565b91505092915050565b600081519050919050565b600082825260208201905092915050565b6000819050602082019050919050565b600061ffff82169050919050565b612f3081612f19565b82525050565b612f3f81612e5a565b82525050565b600073ffffffffffffffffffffffffffffffffffffffff82169050919050565b6000612f7082612f45565b9050919050565b612f8081612f65565b82525050565b612f8f81612c18565b82525050565b60c082016000820151612fab6000850182612f27565b506020820151612fbe6020850182612f36565b506040820151612fd16040850182612f77565b506060820151612fe46060850182612f86565b506080820151612ff76080850182612f86565b5060a082015161300a60a0850182612f86565b50505050565b600061301c8383612f95565b60c08301905092915050565b6000602082019050919050565b600061304082612eed565b61304a8185612ef8565b935061305583612f09565b8060005b8381101561308657815161306d8882613010565b975061307883613028565b925050600181019050613059565b5085935050505092915050565b600060208201905081810360008301526130ad8184613035565b905092915050565b6130be81612f65565b81146130c957600080fd5b50565b6000813590506130db816130b5565b92915050565b6000602082840312156130f7576130f6612ba9565b5b6000613105848285016130cc565b91505092915050565b61311781612bb3565b82525050565b6000602082019050613132600083018461310e565b92915050565b600060ff82169050919050565b61314e81613138565b811461315957600080fd5b50565b60008135905061316b81613145565b92915050565b60006020828403121561318757613186612ba9565b5b60006131958482850161315c565b91505092915050565b600081519050919050565b600082825260208201905092915050565b6000819050602082019050919050565b6060820160008201516131e06000850182612f36565b5060208201516131f36020850182612f86565b5060408201516132066040850182612f77565b50505050565b600061321883836131ca565b60608301905092915050565b6000602082019050919050565b600061323c8261319e565b61324681856131a9565b9350613251836131ba565b8060005b83811015613282578151613269888261320c565b975061327483613224565b925050600181019050613255565b5085935050505092915050565b600060208201905081810360008301526132a98184613231565b905092915050565b600080fd5b60008083601f8401126132cc576132cb612ca5565b5b8235905067ffffffffffffffff8111156132e9576132e86132b1565b5b60208301915083600182028301111561330557613304612d62565b5b9250929050565b6000806020838503121561332357613322612ba9565b5b600083013567ffffffffffffffff81111561334157613340612bae565b5b61334d858286016132b6565b92509250509250929050565b61336281612f65565b82525050565b600060608201905061337d6000830186612e6a565b61338a6020830185612c7b565b6133976040830184613359565b949350505050565b600081519050919050565b600082825260208201905092915050565b60005b838110156133d95780820151818401526020810190506133be565b838111156133e8576000848401525b50505050565b60006133f98261339f565b61340381856133aa565b93506134138185602086016133bb565b61341c81612caa565b840191505092915050565b600060408201905061343c600083018561310e565b818103602083015261344e81846133ee565b90509392505050565b61346081613138565b82525050565b600060208201905061347b6000830184613457565b92915050565b61348a81612f19565b82525050565b60006020820190506134a56000830184613481565b92915050565b600060c0820190506134c06000830189613481565b6134cd6020830188612e6a565b6134da6040830187613359565b6134e76060830186612c7b565b6134f46080830185612c7b565b61350160a0830184612c7b565b979650505050505050565b600081519050919050565b600082825260208201905092915050565b6000819050602082019050919050565b60006135448383612f77565b60208301905092915050565b6000602082019050919050565b60006135688261350c565b6135728185613517565b935061357d83613528565b8060005b838110156135ae5781516135958882613538565b97506135a083613550565b925050600181019050613581565b5085935050505092915050565b600060208201905081810360008301526135d5818461355d565b905092915050565b6135e681612f19565b81146135f157600080fd5b50565b600081359050613603816135dd565b92915050565b60006020828403121561361f5761361e612ba9565b5b600061362d848285016135f4565b91505092915050565b60c08201600082015161364c6000850182612f27565b50602082015161365f6020850182612f36565b5060408201516136726040850182612f77565b5060608201516136856060850182612f86565b5060808201516136986080850182612f86565b5060a08201516136ab60a0850182612f86565b50505050565b600060c0820190506136c66000830184613636565b92915050565b60006020820190506136e16000830184613359565b92915050565b600082825260208201905092915050565b7f6f6e6c792056524620563220777261707065722063616e2066756c66696c6c00600082015250565b600061372e601f836136e7565b9150613739826136f8565b602082019050919050565b6000602082019050818103600083015261375d81613721565b9050919050565b7f4c696d69742073686f756c642062652067726561746572207468616e20300000600082015250565b600061379a601e836136e7565b91506137a582613764565b602082019050919050565b600060208201905081810360008301526137c98161378d565b9050919050565b7f4e487b7100000000000000000000000000000000000000000000000000000000600052601160045260246000fd5b600061380a82612c18565b915061381583612c18565b925082821015613828576138276137d0565b5b828203905092915050565b7f4e487b7100000000000000000000000000000000000000000000000000000000600052603260045260246000fd5b600061386d82613138565b915061387883613138565b92508282101561388b5761388a6137d0565b5b828203905092915050565b60006138a182613138565b915060ff82036138b4576138b36137d0565b5b600182019050919050565b60006138ca82612c18565b9150600082036138dd576138dc6137d0565b5b600182039050919050565b6000815190506138f781612c22565b92915050565b60006020828403121561391357613912612ba9565b5b6000613921848285016138e8565b91505092915050565b7f4c494e4b2042616c616e63652069732030000000000000000000000000000000600082015250565b60006139606011836136e7565b915061396b8261392a565b602082019050919050565b6000602082019050818103600083015261398f81613953565b9050919050565b60006040820190506139ab6000830185613359565b6139b86020830184612c7b565b9392505050565b6000815190506139ce81612bbf565b92915050565b6000602082840312156139ea576139e9612ba9565b5b60006139f8848285016139bf565b91505092915050565b600081905092915050565b82818337600083830152505050565b6000613a278385613a01565b9350613a34838584613a0c565b82840190509392505050565b6000613a4d828486613a1b565b91508190509392505050565b7f4e487b7100000000000000000000000000000000000000000000000000000000600052600160045260246000fd5b7f54686520726f756e6420686173206e6f7420656e646564207965740000000000600082015250565b6000613abe601b836136e7565b9150613ac982613a88565b602082019050919050565b60006020820190508181036000830152613aed81613ab1565b9050919050565b7f5468657265206973206e6f207469636b65747320796574000000000000000000600082015250565b6000613b2a6017836136e7565b9150613b3582613af4565b602082019050919050565b60006020820190508181036000830152613b5981613b1d565b9050919050565b7f5468652077696e6e657220686173206265656e2064657465726d696e65640000600082015250565b6000613b96601e836136e7565b9150613ba182613b60565b602082019050919050565b60006020820190508181036000830152613bc581613b89565b9050919050565b7f5468652077696e6e657220686173206e6f74206265656e2064657465726d696e60008201527f6564000000000000000000000000000000000000000000000000000000000000602082015250565b6000613c286022836136e7565b9150613c3382613bcc565b604082019050919050565b60006020820190508181036000830152613c5781613c1b565b9050919050565b7f54686520706f7420697320656d70747900000000000000000000000000000000600082015250565b6000613c946010836136e7565b9150613c9f82613c5e565b602082019050919050565b60006020820190508181036000830152613cc381613c87565b9050919050565b6000613cd582612f19565b915061ffff8203613ce957613ce86137d0565b5b600182019050919050565b6000613cff82612c18565b9150613d0a83612c18565b9250817fffffffffffffffffffffffffffffffffffffffffffffffffffffffffffffffff0483118215151615613d4357613d426137d0565b5b828202905092915050565b7f4e487b7100000000000000000000000000000000000000000000000000000000600052601260045260246000fd5b6000613d8882612c18565b9150613d9383612c18565b925082613da357613da2613d4e565b5b828204905092915050565b6000819050919050565b6000613dd3613dce613dc984612f45565b613dae565b612f45565b9050919050565b6000613de582613db8565b9050919050565b6000613df782613dda565b9050919050565b613e0781613dec565b82525050565b6000604082019050613e226000830185613dfe565b613e2f6020830184612c7b565b9392505050565b6000613e4182612f19565b9150613e4c83612f19565b92508261ffff03821115613e6357613e626137d0565b5b828201905092915050565b7f5468657265206973206e6f207375636820726f756e6400000000000000000000600082015250565b6000613ea46016836136e7565b9150613eaf82613e6e565b602082019050919050565b60006020820190508181036000830152613ed381613e97565b9050919050565b6000613ee582612f19565b9150613ef083612f19565b925082821015613f0357613f026137d0565b5b828203905092915050565b7f54686520726f756e64206973206e6f7420696e20706c6179696e67206d6f6465600082015250565b6000613f446020836136e7565b9150613f4f82613f0e565b602082019050919050565b60006020820190508181036000830152613f7381613f37565b9050919050565b7f56616c75652069732062656c6f77205469636b65742050726963650000000000600082015250565b6000613fb0601b836136e7565b9150613fbb82613f7a565b602082019050919050565b60006020820190508181036000830152613fdf81613fa3565b9050919050565b600062ffffff82169050919050565b600061400082613fe6565b915061400b83613fe6565b92508162ffffff0483118215151615614027576140266137d0565b5b828202905092915050565b600061403d82612c18565b915061404883612c18565b9250827fffffffffffffffffffffffffffffffffffffffffffffffffffffffffffffffff0382111561407d5761407c6137d0565b5b828201905092915050565b600060408201905061409d6000830185613457565b6140aa6020830184612c7b565b9392505050565b7f496e76616c696420726571756573740000000000000000000000000000000000600082015250565b60006140e7600f836136e7565b91506140f2826140b1565b602082019050919050565b60006020820190508181036000830152614116816140da565b9050919050565b7f50726f626c656d20696e2067657474696e672072616e646f6d6e657373000000600082015250565b6000614153601d836136e7565b915061415e8261411d565b602082019050919050565b6000602082019050818103600083015261418281614146565b9050919050565b600061419482612c18565b915061419f83612c18565b9250826141af576141ae613d4e565b5b828206905092915050565b60006141c582612c18565b91507fffffffffffffffffffffffffffffffffffffffffffffffffffffffffffffffff82036141f7576141f66137d0565b5b600182019050919050565b60008160601b9050919050565b600061421a82614202565b9050919050565b600061422c8261420f565b9050919050565b61424461423f82612f65565b614221565b82525050565b6000819050919050565b61426561426082612c18565b61424a565b82525050565b60006142778285614233565b6014820191506142878284614254565b6020820191508190509392505050565b60006060820190506142ac6000830186612e6a565b6142b96020830185613481565b6142c66040830184612e6a565b949350505050565b60006060820190506142e36000830186613359565b6142f06020830185612c7b565b818103604083015261430281846133ee565b905094935050505056fea2646970667358221220272eb1673ffba094554c76a259e363a136894b02547b3fd7170d850d1aca20e964736f6c634300080e0033",
  "immutableReferences": {
    "46": [
      {
        "length": 32,
        "start": 3583
      },
      {
        "length": 32,
        "start": 3806
      },
      {
        "length": 32,
        "start": 10298
      }
    ],
    "49": [
      {
        "length": 32,
        "start": 2420
      },
      {
        "length": 32,
        "start": 10358
      },
      {
        "length": 32,
        "start": 10391
      },
      {
        "length": 32,
        "start": 10679
      }
    ],
    "294": [
      {
        "length": 32,
        "start": 2384
      },
      {
        "length": 32,
        "start": 7874
      }
    ],
    "298": [
      {
        "length": 32,
        "start": 5634
      },
      {
        "length": 32,
        "start": 6951
      }
    ]
  },
  "source": "// SPDX-License-Identifier: Proprietary\n\npragma solidity ^0.8.11;\n\nimport \"@chainlink/contracts/src/v0.8/VRFV2WrapperConsumerBase.sol\";\nimport \"@chainlink/contracts/src/v0.8/AutomationCompatible.sol\";\n\ncontract Dhakon is VRFV2WrapperConsumerBase, AutomationCompatibleInterface {\n    address owner;\n\n    uint immutable public ticketPrice;\n    uint8 public roundDays;\n    uint16 immutable public commissionPct;\n\n    address[] public players;\n    mapping(address => bool) checkPlayers;\n\n    struct Ticket {\n        uint32 num;\n        uint time;\n        address player;\n    }\n\n    Ticket[] public tickets;\n    mapping(uint32 => address) public playerTickets;   // ticket number => player's address\n\n    struct Winner {\n        uint16 round;\n        uint32 ticket;\n        address player;\n        uint randRequestId;         // Randomness requestId\n        uint wonAt;\n        uint paidAt;\n    }\n\n    Winner[] public winners;\n    \n    bool public isPickingWinner;\n    bool public isPayingWinner;\n    bool public isPaused;  // not accepting players when paused\n    \n    uint16 public currentRound = 0;\n    uint public roundEndsAt;\n\n    uint32 public callbackGasLimit;\n    uint16 constant REQUEST_CONFIRMATIONS = 3;\n\n    uint public lastRequestId;\n\n    event NewPlayerEntered(uint32 indexed ticket, address indexed player);\n    event RoundStarted(uint16 indexed round, uint8 nDays, uint endsAt);\n    event WinnerChosen(uint32 indexed ticket, address player);\n    event WinnerPaid(uint32 indexed ticket, address player, uint paidAt);\n\n    constructor(\n        address _linkAddress, \n        address _wrapperAddress,\n        uint32 _callbackGasLimit, \n        uint _ticketPrice,\n        uint8 _roundDays,\n        uint16 _commissionPct\n    )\n    VRFV2WrapperConsumerBase(\n        _linkAddress,              // LINK token address 0x326C977E6efc84E512bB9C30f76E30c160eD06FB\n        _wrapperAddress            // Mumbai VRF wrapper 0x99aFAf084eBA697E584501b8Ed2c0B37Dd136693\n    ) {\n        callbackGasLimit = _callbackGasLimit;\n\n        owner = msg.sender;\n        ticketPrice = _ticketPrice;\n        roundDays = _roundDays;\n        commissionPct = _commissionPct;\n    }\n\n    function checkUpkeep(bytes calldata checkData) external view override\n        returns (bool upkeepNeeded, bytes memory performData)\n    {\n        if (keccak256(checkData) == keccak256(hex'01')) {\n            upkeepNeeded = tickets.length > 0 && winners.length <= currentRound && roundEndsAt <= block.timestamp;\n            performData = checkData;\n            \n        } else if (keccak256(checkData) == keccak256(hex'02')) {\n            upkeepNeeded = winners.length > currentRound;\n            performData = checkData;\n        }\n    }\n\n    function performUpkeep(bytes calldata performData) external override \n    {\n        if (keccak256(performData) == keccak256(hex'01')) {\n            assert(winners.length <= currentRound && roundEndsAt <= block.timestamp);\n            require(!isPickingWinner);\n            pickWinner();\n\n        } else if (keccak256(performData) == keccak256(hex'02')) {\n            assert(winners.length > currentRound);\n            payWinner();\n        }\n    }\n\n    function getRandomNumber() internal virtual {\n        uint requestId = requestRandomness(callbackGasLimit, REQUEST_CONFIRMATIONS, 1);    \n        lastRequestId = requestId;\n    }\n\n    function fulfillRandomWords(uint requestId, uint256[] memory randomness) internal override {\n        require(requestId == lastRequestId, \"Invalid request\");\n        require(randomness[0] != 0, \"Problem in getting randomness\");\n\n        uint index = randomness[0] % tickets.length;\n        uint32 ticketNum = tickets[index].num;\n        Winner memory winner = Winner({\n            round: currentRound + 1,\n            ticket: ticketNum, \n            player: playerTickets[ticketNum],\n            randRequestId: requestId,\n            wonAt: block.timestamp,\n            paidAt: 0\n        });\n\n        winners.push(winner);\n        emit WinnerChosen({\n            ticket: winner.ticket, \n            player: winner.player\n        });\n\n        isPickingWinner = false;\n    }\n\n    function getWinners(uint32 limit) public view returns(Winner[] memory) {\n        require(limit > 0, \"Limit should be greater than 0\");\n\n        Winner[] memory lastWinners = new Winner[](limit);\n        if (winners.length == 0) {\n            return lastWinners;\n        }\n\n        uint8 idx1 = 1;\n        uint idx2 = winners.length;\n\n        while(idx1 <= limit && idx2 > 0) {\n            lastWinners[idx1-1] = winners[idx2-1];\n            idx1++; idx2--;\n        }\n\n        return lastWinners;\n    }\n\n    function getNumOfWinners() public view returns(uint) {\n        return winners.length;\n    }\n\n    function getWinnerByRound(uint16 _round) public view returns (Winner memory) {\n        if (_round == 0) {\n            _round = currentRound + 1;\n        }\n        require(_round <= winners.length, \"There is no such round\");\n        return winners[_round-1];\n    }\n\n    function getBalance() public view returns (uint) {\n        return address(this).balance;\n    }\n\n    function getPlayers(uint8 limit) public view returns(address[] memory) {\n        require(limit > 0, \"Limit should be greater than 0\");\n\n        address[] memory lastPlayers = new address[](limit);\n        if (players.length == 0) {\n            return lastPlayers;\n        }\n        \n        uint8 idx1 = 1;\n        uint idx2 = players.length;\n\n        while(idx1 <= limit && idx2 > 0) {\n            lastPlayers[idx1-1] = players[idx2-1];\n            idx1++; idx2--;\n        }\n\n        return lastPlayers;\n    }\n\n    function getNumOfPlayers() public view returns (uint) {\n        return players.length;\n    }\n\n    function getTickets(uint8 limit) public view returns(Ticket[] memory) {\n        require(limit > 0, \"Limit should be greater than 0\");\n\n        Ticket[] memory lastTickets = new Ticket[](limit);\n        if (tickets.length == 0) {\n            return lastTickets;\n        }\n        \n        uint8 idx1 = 1;\n        uint idx2 = tickets.length;\n\n        while(idx1 <= limit && idx2 > 0) {\n            lastTickets[idx1-1] = tickets[idx2-1];\n            idx1++; idx2--;\n        }\n\n        return lastTickets;\n    }\n\n    function getNumOfTickets() public view returns(uint) {\n        return tickets.length;\n    }\n\n    function addPlayer(address _address) internal {\n        if (checkPlayers[_address] != true) {  // only add if player's address not yet exist\n            checkPlayers[_address] = true;\n            players.push(_address);\n        }\n    }\n\n    function newTicket(address player) internal view returns (Ticket memory) {\n        uint32 ticketNum = uint32(uint256(keccak256(abi.encodePacked(owner, block.timestamp))));\n        return Ticket({\n            num: ticketNum,\n            time: block.timestamp,\n            player: player\n        });\n    }\n\n    function enter() public payable {\n        require(!isPaused, \"The round is not in playing mode\");\n        require(msg.value >= ticketPrice, \"Value is below Ticket Price\");\n\n        // save new ticket entering the round\n        address player = msg.sender;\n        Ticket memory ticket = newTicket(player);\n        tickets.push(ticket);\n        playerTickets[ticket.num] = player;\n\n        addPlayer(player);\n        emit NewPlayerEntered({\n            ticket: ticket.num, \n            player: ticket.player\n        });\n\n        // start the round when first ticket is added\n        if (tickets.length == 1) {\n            roundEndsAt = block.timestamp + (roundDays * 1 days);\n            emit RoundStarted({\n                round: currentRound + 1,\n                nDays: roundDays,\n                endsAt: roundEndsAt\n            });\n        }\n    }\n\n    function pickWinner() public {\n        require(!isPickingWinner);\n        require(roundEndsAt <= block.timestamp, \"The round has not ended yet\");\n        require(tickets.length > 0, \"There is no tickets yet\");        \n        require(winners.length <= currentRound, \"The winner has been determined\");\n\n        isPickingWinner = true;\n        isPaused = true;\n        \n        getRandomNumber();\n    }\n\n    function payWinner() public {\n        require(!isPayingWinner);\n        require(winners.length > currentRound, \"The winner has not been determined\");  \n\n        isPayingWinner = true;\n        uint balance = address(this).balance;\n        require(balance > 0, \"The pot is empty\");\n\n        uint32 ticketNum = winners[currentRound].ticket;\n        address payable player = payable(playerTickets[ticketNum]);\n        address payable holder = payable(owner);\n        uint paidAt = block.timestamp;\n        winners[currentRound].paidAt = paidAt;\n        currentRound++;\n\n        uint commissionAmt = commissionPct * balance / 10000;\n        uint playerPrize = balance - commissionAmt;\n\n        player.transfer(playerPrize);\n        holder.transfer(commissionAmt);\n\n        isPayingWinner = false;\n        emit WinnerPaid({\n            ticket: ticketNum, \n            player: player, \n            paidAt: paidAt\n        });\n        \n        // reset the state of the contract for new round\n        resetRound();\n    }\n\n    function resetRound() internal {        \n        for(uint i=0; i < players.length; i++) {\n            delete checkPlayers[players[i]]; \n        }\n        delete players;\n\n        for(uint i=0; i < tickets.length; i++) {\n            delete playerTickets[tickets[i].num];\n        }\n        delete tickets;\n\n        isPaused = false;\n    }\n\n    function withdrawLINKToken() external onlyOwner {\n        uint balance = LINK.balanceOf(address(this));\n        require(balance > 0, \"LINK Balance is 0\");\n        \n        LINK.transfer(owner, balance);\n    }\n\n    function setRoundDays(uint8 _roundDays) external onlyOwner {\n        roundDays = _roundDays;\n    }\n\n    function setRoundEndsAt(uint _timestamp) external onlyOwner {\n        roundEndsAt = _timestamp;\n    }\n\n    function setIsPickingWinner(bool _val) external onlyOwner {\n        isPickingWinner = _val;\n    }\n\n    function setIsPayingWinner(bool _val) external onlyOwner {\n        isPayingWinner = _val;\n    }\n\n    function setIsPaused(bool _val) external onlyOwner {\n        isPaused = _val;\n    }\n\n    function setCallbackGasLimit(uint32 _val) external onlyOwner {\n        callbackGasLimit = _val;\n    }\n\n    function isOwner(address _address) public view returns(bool) {\n        return (_address == owner);\n    }\n\n    modifier onlyOwner() {\n      require(msg.sender == owner);\n      _;\n    }\n}",
  "sourcePath": "/home/adminx/code/dhakon/backend/contracts/Dhakon.sol",
  "compiler": {
    "name": "solc",
    "version": "0.8.14+commit.80d49f37.Emscripten.clang"
  },
  "schemaVersion": "3.4.11",
  "updatedAt": "2023-01-04T06:56:04.820Z",
  "networkType": "ethereum",
  "devdoc": {
    "kind": "dev",
    "methods": {
      "checkUpkeep(bytes)": {
        "details": "To ensure that it is never called, you may want to add the cannotExecute modifier from KeeperBase to your implementation of this method.",
        "params": {
          "checkData": "specified in the upkeep registration so it is always the same for a registered upkeep. This can easily be broken down into specific arguments using `abi.decode`, so multiple upkeeps can be registered on the same contract and easily differentiated by the contract."
        },
        "returns": {
          "performData": "bytes that the keeper should call performUpkeep with, if upkeep is needed. If you would like to encode data to decode later, try `abi.encode`.",
          "upkeepNeeded": "boolean to indicate whether the keeper should call performUpkeep or not."
        }
      },
      "performUpkeep(bytes)": {
        "details": "The input to this method should not be trusted, and the caller of the method should not even be restricted to any single registry. Anyone should be able call it, and the input should be validated, there is no guarantee that the data passed in is the performData returned from checkUpkeep. This could happen due to malicious keepers, racing keepers, or simply a state change while the performUpkeep transaction is waiting for confirmation. Always validate the data passed in.",
        "params": {
          "performData": "is the data which was passed back from the checkData simulation. If it is encoded, it can easily be decoded into other types by calling `abi.decode`. This data should not be trusted, and should be validated against the contract's current state."
        }
      }
    },
    "version": 1
  },
  "userdoc": {
    "kind": "user",
    "methods": {
      "checkUpkeep(bytes)": {
        "notice": "method that is simulated by the keepers to see if any work actually needs to be performed. This method does does not actually need to be executable, and since it is only ever simulated it can consume lots of gas."
      },
      "performUpkeep(bytes)": {
        "notice": "method that is actually executed by the keepers, via the registry. The data returned by the checkUpkeep simulation will be passed into this method to actually be executed."
      }
    },
    "version": 1
  }
}